{
  "_format": "hh-sol-artifact-1",
  "contractName": "MusicCoin",
  "sourceName": "contracts/MusicCoin.sol",
  "abi": [
    {
      "inputs": [
        {
          "internalType": "address",
          "name": "initialOwner",
          "type": "address"
        }
      ],
      "stateMutability": "nonpayable",
      "type": "constructor"
    },
    {
      "inputs": [],
      "name": "ECDSAInvalidSignature",
      "type": "error"
    },
    {
      "inputs": [
        {
          "internalType": "uint256",
          "name": "length",
          "type": "uint256"
        }
      ],
      "name": "ECDSAInvalidSignatureLength",
      "type": "error"
    },
    {
      "inputs": [
        {
          "internalType": "bytes32",
          "name": "s",
          "type": "bytes32"
        }
      ],
      "name": "ECDSAInvalidSignatureS",
      "type": "error"
    },
    {
      "inputs": [
        {
          "internalType": "address",
          "name": "spender",
          "type": "address"
        },
        {
          "internalType": "uint256",
          "name": "allowance",
          "type": "uint256"
        },
        {
          "internalType": "uint256",
          "name": "needed",
          "type": "uint256"
        }
      ],
      "name": "ERC20InsufficientAllowance",
      "type": "error"
    },
    {
      "inputs": [
        {
          "internalType": "address",
          "name": "sender",
          "type": "address"
        },
        {
          "internalType": "uint256",
          "name": "balance",
          "type": "uint256"
        },
        {
          "internalType": "uint256",
          "name": "needed",
          "type": "uint256"
        }
      ],
      "name": "ERC20InsufficientBalance",
      "type": "error"
    },
    {
      "inputs": [
        {
          "internalType": "address",
          "name": "approver",
          "type": "address"
        }
      ],
      "name": "ERC20InvalidApprover",
      "type": "error"
    },
    {
      "inputs": [
        {
          "internalType": "address",
          "name": "receiver",
          "type": "address"
        }
      ],
      "name": "ERC20InvalidReceiver",
      "type": "error"
    },
    {
      "inputs": [
        {
          "internalType": "address",
          "name": "sender",
          "type": "address"
        }
      ],
      "name": "ERC20InvalidSender",
      "type": "error"
    },
    {
      "inputs": [
        {
          "internalType": "address",
          "name": "spender",
          "type": "address"
        }
      ],
      "name": "ERC20InvalidSpender",
      "type": "error"
    },
    {
      "inputs": [
        {
          "internalType": "uint256",
          "name": "deadline",
          "type": "uint256"
        }
      ],
      "name": "ERC2612ExpiredSignature",
      "type": "error"
    },
    {
      "inputs": [
        {
          "internalType": "address",
          "name": "signer",
          "type": "address"
        },
        {
          "internalType": "address",
          "name": "owner",
          "type": "address"
        }
      ],
      "name": "ERC2612InvalidSigner",
      "type": "error"
    },
    {
      "inputs": [
        {
          "internalType": "address",
          "name": "account",
          "type": "address"
        },
        {
          "internalType": "uint256",
          "name": "currentNonce",
          "type": "uint256"
        }
      ],
      "name": "InvalidAccountNonce",
      "type": "error"
    },
    {
      "inputs": [],
      "name": "InvalidShortString",
      "type": "error"
    },
    {
      "inputs": [
        {
          "internalType": "address",
          "name": "owner",
          "type": "address"
        }
      ],
      "name": "OwnableInvalidOwner",
      "type": "error"
    },
    {
      "inputs": [
        {
          "internalType": "address",
          "name": "account",
          "type": "address"
        }
      ],
      "name": "OwnableUnauthorizedAccount",
      "type": "error"
    },
    {
      "inputs": [
        {
          "internalType": "string",
          "name": "str",
          "type": "string"
        }
      ],
      "name": "StringTooLong",
      "type": "error"
    },
    {
      "anonymous": false,
      "inputs": [
        {
          "indexed": true,
          "internalType": "address",
          "name": "owner",
          "type": "address"
        },
        {
          "indexed": true,
          "internalType": "address",
          "name": "spender",
          "type": "address"
        },
        {
          "indexed": false,
          "internalType": "uint256",
          "name": "value",
          "type": "uint256"
        }
      ],
      "name": "Approval",
      "type": "event"
    },
    {
      "anonymous": false,
      "inputs": [],
      "name": "EIP712DomainChanged",
      "type": "event"
    },
    {
      "anonymous": false,
      "inputs": [
        {
          "indexed": true,
          "internalType": "address",
          "name": "previousOwner",
          "type": "address"
        },
        {
          "indexed": true,
          "internalType": "address",
          "name": "newOwner",
          "type": "address"
        }
      ],
      "name": "OwnershipTransferred",
      "type": "event"
    },
    {
      "anonymous": false,
      "inputs": [
        {
          "indexed": true,
          "internalType": "address",
          "name": "from",
          "type": "address"
        },
        {
          "indexed": true,
          "internalType": "address",
          "name": "to",
          "type": "address"
        },
        {
          "indexed": false,
          "internalType": "uint256",
          "name": "value",
          "type": "uint256"
        }
      ],
      "name": "Transfer",
      "type": "event"
    },
    {
      "inputs": [],
      "name": "DOMAIN_SEPARATOR",
      "outputs": [
        {
          "internalType": "bytes32",
          "name": "",
          "type": "bytes32"
        }
      ],
      "stateMutability": "view",
      "type": "function"
    },
    {
      "inputs": [
        {
          "internalType": "address",
          "name": "owner",
          "type": "address"
        },
        {
          "internalType": "address",
          "name": "spender",
          "type": "address"
        }
      ],
      "name": "allowance",
      "outputs": [
        {
          "internalType": "uint256",
          "name": "",
          "type": "uint256"
        }
      ],
      "stateMutability": "view",
      "type": "function"
    },
    {
      "inputs": [
        {
          "internalType": "address",
          "name": "spender",
          "type": "address"
        },
        {
          "internalType": "uint256",
          "name": "value",
          "type": "uint256"
        }
      ],
      "name": "approve",
      "outputs": [
        {
          "internalType": "bool",
          "name": "",
          "type": "bool"
        }
      ],
      "stateMutability": "nonpayable",
      "type": "function"
    },
    {
      "inputs": [
        {
          "internalType": "address",
          "name": "account",
          "type": "address"
        }
      ],
      "name": "balanceOf",
      "outputs": [
        {
          "internalType": "uint256",
          "name": "",
          "type": "uint256"
        }
      ],
      "stateMutability": "view",
      "type": "function"
    },
    {
      "inputs": [],
      "name": "decimals",
      "outputs": [
        {
          "internalType": "uint8",
          "name": "",
          "type": "uint8"
        }
      ],
      "stateMutability": "view",
      "type": "function"
    },
    {
      "inputs": [],
      "name": "eip712Domain",
      "outputs": [
        {
          "internalType": "bytes1",
          "name": "fields",
          "type": "bytes1"
        },
        {
          "internalType": "string",
          "name": "name",
          "type": "string"
        },
        {
          "internalType": "string",
          "name": "version",
          "type": "string"
        },
        {
          "internalType": "uint256",
          "name": "chainId",
          "type": "uint256"
        },
        {
          "internalType": "address",
          "name": "verifyingContract",
          "type": "address"
        },
        {
          "internalType": "bytes32",
          "name": "salt",
          "type": "bytes32"
        },
        {
          "internalType": "uint256[]",
          "name": "extensions",
          "type": "uint256[]"
        }
      ],
      "stateMutability": "view",
      "type": "function"
    },
    {
      "inputs": [
        {
          "internalType": "address",
          "name": "to",
          "type": "address"
        },
        {
          "internalType": "uint256",
          "name": "amount",
          "type": "uint256"
        }
      ],
      "name": "mint",
      "outputs": [],
      "stateMutability": "nonpayable",
      "type": "function"
    },
    {
      "inputs": [],
      "name": "name",
      "outputs": [
        {
          "internalType": "string",
          "name": "",
          "type": "string"
        }
      ],
      "stateMutability": "view",
      "type": "function"
    },
    {
      "inputs": [
        {
          "internalType": "address",
          "name": "owner",
          "type": "address"
        }
      ],
      "name": "nonces",
      "outputs": [
        {
          "internalType": "uint256",
          "name": "",
          "type": "uint256"
        }
      ],
      "stateMutability": "view",
      "type": "function"
    },
    {
      "inputs": [],
      "name": "owner",
      "outputs": [
        {
          "internalType": "address",
          "name": "",
          "type": "address"
        }
      ],
      "stateMutability": "view",
      "type": "function"
    },
    {
      "inputs": [
        {
          "internalType": "address",
          "name": "from",
          "type": "address"
        },
        {
          "internalType": "uint256",
          "name": "amount",
          "type": "uint256"
        }
      ],
      "name": "payToOwner",
      "outputs": [],
      "stateMutability": "nonpayable",
      "type": "function"
    },
    {
      "inputs": [
        {
          "internalType": "address",
          "name": "owner",
          "type": "address"
        },
        {
          "internalType": "address",
          "name": "spender",
          "type": "address"
        },
        {
          "internalType": "uint256",
          "name": "value",
          "type": "uint256"
        },
        {
          "internalType": "uint256",
          "name": "deadline",
          "type": "uint256"
        },
        {
          "internalType": "uint8",
          "name": "v",
          "type": "uint8"
        },
        {
          "internalType": "bytes32",
          "name": "r",
          "type": "bytes32"
        },
        {
          "internalType": "bytes32",
          "name": "s",
          "type": "bytes32"
        }
      ],
      "name": "permit",
      "outputs": [],
      "stateMutability": "nonpayable",
      "type": "function"
    },
    {
      "inputs": [],
      "name": "renounceOwnership",
      "outputs": [],
      "stateMutability": "nonpayable",
      "type": "function"
    },
    {
      "inputs": [],
      "name": "symbol",
      "outputs": [
        {
          "internalType": "string",
          "name": "",
          "type": "string"
        }
      ],
      "stateMutability": "view",
      "type": "function"
    },
    {
      "inputs": [],
      "name": "totalSupply",
      "outputs": [
        {
          "internalType": "uint256",
          "name": "",
          "type": "uint256"
        }
      ],
      "stateMutability": "view",
      "type": "function"
    },
    {
      "inputs": [
        {
          "internalType": "address",
          "name": "to",
          "type": "address"
        },
        {
          "internalType": "uint256",
          "name": "value",
          "type": "uint256"
        }
      ],
      "name": "transfer",
      "outputs": [
        {
          "internalType": "bool",
          "name": "",
          "type": "bool"
        }
      ],
      "stateMutability": "nonpayable",
      "type": "function"
    },
    {
      "inputs": [
        {
          "internalType": "address",
          "name": "from",
          "type": "address"
        },
        {
          "internalType": "address",
          "name": "to",
          "type": "address"
        },
        {
          "internalType": "uint256",
          "name": "value",
          "type": "uint256"
        }
      ],
      "name": "transferFrom",
      "outputs": [
        {
          "internalType": "bool",
          "name": "",
          "type": "bool"
        }
      ],
      "stateMutability": "nonpayable",
      "type": "function"
    },
    {
      "inputs": [
        {
          "internalType": "address",
          "name": "newOwner",
          "type": "address"
        }
      ],
      "name": "transferOwnership",
      "outputs": [],
      "stateMutability": "nonpayable",
      "type": "function"
    }
  ],
  "bytecode": "0x61016060405234801561001157600080fd5b50604051612b43380380612b43833981810160405281019061003391906104a8565b6040518060400160405280600981526020017f4d75736963436f696e0000000000000000000000000000000000000000000000815250806040518060400160405280600181526020017f3100000000000000000000000000000000000000000000000000000000000000815250836040518060400160405280600981526020017f4d75736963436f696e00000000000000000000000000000000000000000000008152506040518060400160405280600281526020017f4d43000000000000000000000000000000000000000000000000000000000000815250816003908161011c9190610725565b50806004908161012c9190610725565b505050600073ffffffffffffffffffffffffffffffffffffffff168173ffffffffffffffffffffffffffffffffffffffff16036101a15760006040517f1e4fbdf70000000000000000000000000000000000000000000000000000000081526004016101989190610806565b60405180910390fd5b6101b08161026260201b60201c565b506101c560068361032860201b90919060201c565b61012081815250506101e160078261032860201b90919060201c565b6101408181525050818051906020012060e08181525050808051906020012061010081815250504660a0818152505061021e61037860201b60201c565b608081815250503073ffffffffffffffffffffffffffffffffffffffff1660c08173ffffffffffffffffffffffffffffffffffffffff1681525050505050506109da565b6000600560009054906101000a900473ffffffffffffffffffffffffffffffffffffffff16905081600560006101000a81548173ffffffffffffffffffffffffffffffffffffffff021916908373ffffffffffffffffffffffffffffffffffffffff1602179055508173ffffffffffffffffffffffffffffffffffffffff168173ffffffffffffffffffffffffffffffffffffffff167f8be0079c531659141344cd1fd0a4f28419497f9722a3daafe3b4186f6b6457e060405160405180910390a35050565b600060208351101561034a57610343836103d360201b60201c565b9050610372565b8261035a8361043b60201b60201c565b60000190816103699190610725565b5060ff60001b90505b92915050565b60007f8b73c3c69bb8fe3d512ecc4cf759cc79239f7b179b0ffacaa9a75d522b39400f60e0516101005146306040516020016103b8959493929190610849565b60405160208183030381529060405280519060200120905090565b600080829050601f8151111561042057826040517f305a27a90000000000000000000000000000000000000000000000000000000081526004016104179190610921565b60405180910390fd5b80518161042c90610973565b60001c1760001b915050919050565b6000819050919050565b600080fd5b600073ffffffffffffffffffffffffffffffffffffffff82169050919050565b60006104758261044a565b9050919050565b6104858161046a565b811461049057600080fd5b50565b6000815190506104a28161047c565b92915050565b6000602082840312156104be576104bd610445565b5b60006104cc84828501610493565b91505092915050565b600081519050919050565b7f4e487b7100000000000000000000000000000000000000000000000000000000600052604160045260246000fd5b7f4e487b7100000000000000000000000000000000000000000000000000000000600052602260045260246000fd5b6000600282049050600182168061055657607f821691505b6020821081036105695761056861050f565b5b50919050565b60008190508160005260206000209050919050565b60006020601f8301049050919050565b600082821b905092915050565b6000600883026105d17fffffffffffffffffffffffffffffffffffffffffffffffffffffffffffffffff82610594565b6105db8683610594565b95508019841693508086168417925050509392505050565b6000819050919050565b6000819050919050565b600061062261061d610618846105f3565b6105fd565b6105f3565b9050919050565b6000819050919050565b61063c83610607565b61065061064882610629565b8484546105a1565b825550505050565b600090565b610665610658565b610670818484610633565b505050565b5b818110156106945761068960008261065d565b600181019050610676565b5050565b601f8211156106d9576106aa8161056f565b6106b384610584565b810160208510156106c2578190505b6106d66106ce85610584565b830182610675565b50505b505050565b600082821c905092915050565b60006106fc600019846008026106de565b1980831691505092915050565b600061071583836106eb565b9150826002028217905092915050565b61072e826104d5565b67ffffffffffffffff811115610747576107466104e0565b5b610751825461053e565b61075c828285610698565b600060209050601f83116001811461078f576000841561077d578287015190505b6107878582610709565b8655506107ef565b601f19841661079d8661056f565b60005b828110156107c5578489015182556001820191506020850194506020810190506107a0565b868310156107e257848901516107de601f8916826106eb565b8355505b6001600288020188555050505b505050505050565b6108008161046a565b82525050565b600060208201905061081b60008301846107f7565b92915050565b6000819050919050565b61083481610821565b82525050565b610843816105f3565b82525050565b600060a08201905061085e600083018861082b565b61086b602083018761082b565b610878604083018661082b565b610885606083018561083a565b61089260808301846107f7565b9695505050505050565b600082825260208201905092915050565b60005b838110156108cb5780820151818401526020810190506108b0565b60008484015250505050565b6000601f19601f8301169050919050565b60006108f3826104d5565b6108fd818561089c565b935061090d8185602086016108ad565b610916816108d7565b840191505092915050565b6000602082019050818103600083015261093b81846108e8565b905092915050565b600081519050919050565b6000819050602082019050919050565b600061096a8251610821565b80915050919050565b600061097e82610943565b826109888461094e565b90506109938161095e565b925060208210156109d3576109ce7fffffffffffffffffffffffffffffffffffffffffffffffffffffffffffffffff83602003600802610594565b831692505b5050919050565b60805160a05160c05160e05161010051610120516101405161210f610a346000396000610e5e01526000610e23015260006113730152600061135201526000610b4f01526000610ba501526000610bce015261210f6000f3fe608060405234801561001057600080fd5b50600436106101165760003560e01c80637ecebe00116100a2578063a9059cbb11610071578063a9059cbb146102d9578063d505accf14610309578063dd62ed3e14610325578063e986f56b14610355578063f2fde38b1461037157610116565b80637ecebe001461024957806384b0196e146102795780638da5cb5b1461029d57806395d89b41146102bb57610116565b8063313ce567116100e9578063313ce567146101b75780633644e515146101d557806340c10f19146101f357806370a082311461020f578063715018a61461023f57610116565b806306fdde031461011b578063095ea7b31461013957806318160ddd1461016957806323b872dd14610187575b600080fd5b61012361038d565b6040516101309190611860565b60405180910390f35b610153600480360381019061014e919061191b565b61041f565b6040516101609190611976565b60405180910390f35b610171610442565b60405161017e91906119a0565b60405180910390f35b6101a1600480360381019061019c91906119bb565b61044c565b6040516101ae9190611976565b60405180910390f35b6101bf61047b565b6040516101cc9190611a2a565b60405180910390f35b6101dd610484565b6040516101ea9190611a5e565b60405180910390f35b61020d6004803603810190610208919061191b565b610493565b005b61022960048036038101906102249190611a79565b6104a9565b60405161023691906119a0565b60405180910390f35b6102476104f1565b005b610263600480360381019061025e9190611a79565b610505565b60405161027091906119a0565b60405180910390f35b610281610517565b6040516102949796959493929190611bae565b60405180910390f35b6102a56105c1565b6040516102b29190611c32565b60405180910390f35b6102c36105eb565b6040516102d09190611860565b60405180910390f35b6102f360048036038101906102ee919061191b565b61067d565b6040516103009190611976565b60405180910390f35b610323600480360381019061031e9190611ca5565b6106a0565b005b61033f600480360381019061033a9190611d47565b6107e8565b60405161034c91906119a0565b60405180910390f35b61036f600480360381019061036a919061191b565b61086f565b005b61038b60048036038101906103869190611a79565b610922565b005b60606003805461039c90611db6565b80601f01602080910402602001604051908101604052809291908181526020018280546103c890611db6565b80156104155780601f106103ea57610100808354040283529160200191610415565b820191906000526020600020905b8154815290600101906020018083116103f857829003601f168201915b5050505050905090565b60008061042a6109a8565b90506104378185856109b0565b600191505092915050565b6000600254905090565b6000806104576109a8565b90506104648582856109c2565b61046f858585610a57565b60019150509392505050565b60006012905090565b600061048e610b4b565b905090565b61049b610c02565b6104a58282610c89565b5050565b60008060008373ffffffffffffffffffffffffffffffffffffffff1673ffffffffffffffffffffffffffffffffffffffff168152602001908152602001600020549050919050565b6104f9610c02565b6105036000610d0b565b565b600061051082610dd1565b9050919050565b60006060806000806000606061052b610e1a565b610533610e55565b46306000801b600067ffffffffffffffff81111561055457610553611de7565b5b6040519080825280602002602001820160405280156105825781602001602082028036833780820191505090505b507f0f00000000000000000000000000000000000000000000000000000000000000959493929190965096509650965096509650965090919293949596565b6000600560009054906101000a900473ffffffffffffffffffffffffffffffffffffffff16905090565b6060600480546105fa90611db6565b80601f016020809104026020016040519081016040528092919081815260200182805461062690611db6565b80156106735780601f1061064857610100808354040283529160200191610673565b820191906000526020600020905b81548152906001019060200180831161065657829003601f168201915b5050505050905090565b6000806106886109a8565b9050610695818585610a57565b600191505092915050565b834211156106e557836040517f627913020000000000000000000000000000000000000000000000000000000081526004016106dc91906119a0565b60405180910390fd5b60007f6e71edae12b1b97f4d1f60370fef10105fa2faae0126114a169c64845d6126c98888886107148c610e90565b8960405160200161072a96959493929190611e16565b604051602081830303815290604052805190602001209050600061074d82610ee7565b9050600061075d82878787610f01565b90508973ffffffffffffffffffffffffffffffffffffffff168173ffffffffffffffffffffffffffffffffffffffff16146107d157808a6040517f4b800e460000000000000000000000000000000000000000000000000000000081526004016107c8929190611e77565b60405180910390fd5b6107dc8a8a8a6109b0565b50505050505050505050565b6000600160008473ffffffffffffffffffffffffffffffffffffffff1673ffffffffffffffffffffffffffffffffffffffff16815260200190815260200160002060008373ffffffffffffffffffffffffffffffffffffffff1673ffffffffffffffffffffffffffffffffffffffff16815260200190815260200160002054905092915050565b60006108796105c1565b90508161088684336107e8565b10156108c7576040517f08c379a00000000000000000000000000000000000000000000000000000000081526004016108be90611eec565b60405180910390fd5b816108d1846104a9565b1015610912576040517f08c379a000000000000000000000000000000000000000000000000000000000815260040161090990611f58565b60405180910390fd5b61091d838284610a57565b505050565b61092a610c02565b600073ffffffffffffffffffffffffffffffffffffffff168173ffffffffffffffffffffffffffffffffffffffff160361099c5760006040517f1e4fbdf70000000000000000000000000000000000000000000000000000000081526004016109939190611c32565b60405180910390fd5b6109a581610d0b565b50565b600033905090565b6109bd8383836001610f31565b505050565b60006109ce84846107e8565b90507fffffffffffffffffffffffffffffffffffffffffffffffffffffffffffffffff811015610a515781811015610a41578281836040517ffb8f41b2000000000000000000000000000000000000000000000000000000008152600401610a3893929190611f78565b60405180910390fd5b610a5084848484036000610f31565b5b50505050565b600073ffffffffffffffffffffffffffffffffffffffff168373ffffffffffffffffffffffffffffffffffffffff1603610ac95760006040517f96c6fd1e000000000000000000000000000000000000000000000000000000008152600401610ac09190611c32565b60405180910390fd5b600073ffffffffffffffffffffffffffffffffffffffff168273ffffffffffffffffffffffffffffffffffffffff1603610b3b5760006040517fec442f05000000000000000000000000000000000000000000000000000000008152600401610b329190611c32565b60405180910390fd5b610b46838383611108565b505050565b60007f000000000000000000000000000000000000000000000000000000000000000073ffffffffffffffffffffffffffffffffffffffff163073ffffffffffffffffffffffffffffffffffffffff16148015610bc757507f000000000000000000000000000000000000000000000000000000000000000046145b15610bf4577f00000000000000000000000000000000000000000000000000000000000000009050610bff565b610bfc61132d565b90505b90565b610c0a6109a8565b73ffffffffffffffffffffffffffffffffffffffff16610c286105c1565b73ffffffffffffffffffffffffffffffffffffffff1614610c8757610c4b6109a8565b6040517f118cdaa7000000000000000000000000000000000000000000000000000000008152600401610c7e9190611c32565b60405180910390fd5b565b600073ffffffffffffffffffffffffffffffffffffffff168273ffffffffffffffffffffffffffffffffffffffff1603610cfb5760006040517fec442f05000000000000000000000000000000000000000000000000000000008152600401610cf29190611c32565b60405180910390fd5b610d0760008383611108565b5050565b6000600560009054906101000a900473ffffffffffffffffffffffffffffffffffffffff16905081600560006101000a81548173ffffffffffffffffffffffffffffffffffffffff021916908373ffffffffffffffffffffffffffffffffffffffff1602179055508173ffffffffffffffffffffffffffffffffffffffff168173ffffffffffffffffffffffffffffffffffffffff167f8be0079c531659141344cd1fd0a4f28419497f9722a3daafe3b4186f6b6457e060405160405180910390a35050565b6000600860008373ffffffffffffffffffffffffffffffffffffffff1673ffffffffffffffffffffffffffffffffffffffff168152602001908152602001600020549050919050565b6060610e5060067f00000000000000000000000000000000000000000000000000000000000000006113c390919063ffffffff16565b905090565b6060610e8b60077f00000000000000000000000000000000000000000000000000000000000000006113c390919063ffffffff16565b905090565b6000600860008373ffffffffffffffffffffffffffffffffffffffff1673ffffffffffffffffffffffffffffffffffffffff1681526020019081526020016000206000815480929190600101919050559050919050565b6000610efa610ef4610b4b565b83611473565b9050919050565b600080600080610f13888888886114b4565b925092509250610f2382826115a8565b829350505050949350505050565b600073ffffffffffffffffffffffffffffffffffffffff168473ffffffffffffffffffffffffffffffffffffffff1603610fa35760006040517fe602df05000000000000000000000000000000000000000000000000000000008152600401610f9a9190611c32565b60405180910390fd5b600073ffffffffffffffffffffffffffffffffffffffff168373ffffffffffffffffffffffffffffffffffffffff16036110155760006040517f94280d6200000000000000000000000000000000000000000000000000000000815260040161100c9190611c32565b60405180910390fd5b81600160008673ffffffffffffffffffffffffffffffffffffffff1673ffffffffffffffffffffffffffffffffffffffff16815260200190815260200160002060008573ffffffffffffffffffffffffffffffffffffffff1673ffffffffffffffffffffffffffffffffffffffff168152602001908152602001600020819055508015611102578273ffffffffffffffffffffffffffffffffffffffff168473ffffffffffffffffffffffffffffffffffffffff167f8c5be1e5ebec7d5bd14f71427d1e84f3dd0314c0f7b2291e5b200ac8c7c3b925846040516110f991906119a0565b60405180910390a35b50505050565b600073ffffffffffffffffffffffffffffffffffffffff168373ffffffffffffffffffffffffffffffffffffffff160361115a57806002600082825461114e9190611fde565b9250508190555061122d565b60008060008573ffffffffffffffffffffffffffffffffffffffff1673ffffffffffffffffffffffffffffffffffffffff168152602001908152602001600020549050818110156111e6578381836040517fe450d38c0000000000000000000000000000000000000000000000000000000081526004016111dd93929190611f78565b60405180910390fd5b8181036000808673ffffffffffffffffffffffffffffffffffffffff1673ffffffffffffffffffffffffffffffffffffffff16815260200190815260200160002081905550505b600073ffffffffffffffffffffffffffffffffffffffff168273ffffffffffffffffffffffffffffffffffffffff160361127657806002600082825403925050819055506112c3565b806000808473ffffffffffffffffffffffffffffffffffffffff1673ffffffffffffffffffffffffffffffffffffffff168152602001908152602001600020600082825401925050819055505b8173ffffffffffffffffffffffffffffffffffffffff168373ffffffffffffffffffffffffffffffffffffffff167fddf252ad1be2c89b69c2b068fc378daa952ba7f163c4a11628f55a4df523b3ef8360405161132091906119a0565b60405180910390a3505050565b60007f8b73c3c69bb8fe3d512ecc4cf759cc79239f7b179b0ffacaa9a75d522b39400f7f00000000000000000000000000000000000000000000000000000000000000007f000000000000000000000000000000000000000000000000000000000000000046306040516020016113a8959493929190612012565b60405160208183030381529060405280519060200120905090565b606060ff60001b83146113e0576113d98361170c565b905061146d565b8180546113ec90611db6565b80601f016020809104026020016040519081016040528092919081815260200182805461141890611db6565b80156114655780601f1061143a57610100808354040283529160200191611465565b820191906000526020600020905b81548152906001019060200180831161144857829003601f168201915b505050505090505b92915050565b60006040517f190100000000000000000000000000000000000000000000000000000000000081528360028201528260228201526042812091505092915050565b60008060007f7fffffffffffffffffffffffffffffff5d576e7357a4501ddfe92f46681b20a08460001c11156114f457600060038592509250925061159e565b6000600188888888604051600081526020016040526040516115199493929190612065565b6020604051602081039080840390855afa15801561153b573d6000803e3d6000fd5b505050602060405103519050600073ffffffffffffffffffffffffffffffffffffffff168173ffffffffffffffffffffffffffffffffffffffff160361158f57600060016000801b9350935093505061159e565b8060008060001b935093509350505b9450945094915050565b600060038111156115bc576115bb6120aa565b5b8260038111156115cf576115ce6120aa565b5b031561170857600160038111156115e9576115e86120aa565b5b8260038111156115fc576115fb6120aa565b5b03611633576040517ff645eedf00000000000000000000000000000000000000000000000000000000815260040160405180910390fd5b60026003811115611647576116466120aa565b5b82600381111561165a576116596120aa565b5b0361169f578060001c6040517ffce698f700000000000000000000000000000000000000000000000000000000815260040161169691906119a0565b60405180910390fd5b6003808111156116b2576116b16120aa565b5b8260038111156116c5576116c46120aa565b5b0361170757806040517fd78bce0c0000000000000000000000000000000000000000000000000000000081526004016116fe9190611a5e565b60405180910390fd5b5b5050565b6060600061171983611780565b90506000602067ffffffffffffffff81111561173857611737611de7565b5b6040519080825280601f01601f19166020018201604052801561176a5781602001600182028036833780820191505090505b5090508181528360208201528092505050919050565b60008060ff8360001c169050601f8111156117c7576040517fb3512b0c00000000000000000000000000000000000000000000000000000000815260040160405180910390fd5b80915050919050565b600081519050919050565b600082825260208201905092915050565b60005b8381101561180a5780820151818401526020810190506117ef565b60008484015250505050565b6000601f19601f8301169050919050565b6000611832826117d0565b61183c81856117db565b935061184c8185602086016117ec565b61185581611816565b840191505092915050565b6000602082019050818103600083015261187a8184611827565b905092915050565b600080fd5b600073ffffffffffffffffffffffffffffffffffffffff82169050919050565b60006118b282611887565b9050919050565b6118c2816118a7565b81146118cd57600080fd5b50565b6000813590506118df816118b9565b92915050565b6000819050919050565b6118f8816118e5565b811461190357600080fd5b50565b600081359050611915816118ef565b92915050565b6000806040838503121561193257611931611882565b5b6000611940858286016118d0565b925050602061195185828601611906565b9150509250929050565b60008115159050919050565b6119708161195b565b82525050565b600060208201905061198b6000830184611967565b92915050565b61199a816118e5565b82525050565b60006020820190506119b56000830184611991565b92915050565b6000806000606084860312156119d4576119d3611882565b5b60006119e2868287016118d0565b93505060206119f3868287016118d0565b9250506040611a0486828701611906565b9150509250925092565b600060ff82169050919050565b611a2481611a0e565b82525050565b6000602082019050611a3f6000830184611a1b565b92915050565b6000819050919050565b611a5881611a45565b82525050565b6000602082019050611a736000830184611a4f565b92915050565b600060208284031215611a8f57611a8e611882565b5b6000611a9d848285016118d0565b91505092915050565b60007fff0000000000000000000000000000000000000000000000000000000000000082169050919050565b611adb81611aa6565b82525050565b611aea816118a7565b82525050565b600081519050919050565b600082825260208201905092915050565b6000819050602082019050919050565b611b25816118e5565b82525050565b6000611b378383611b1c565b60208301905092915050565b6000602082019050919050565b6000611b5b82611af0565b611b658185611afb565b9350611b7083611b0c565b8060005b83811015611ba1578151611b888882611b2b565b9750611b9383611b43565b925050600181019050611b74565b5085935050505092915050565b600060e082019050611bc3600083018a611ad2565b8181036020830152611bd58189611827565b90508181036040830152611be98188611827565b9050611bf86060830187611991565b611c056080830186611ae1565b611c1260a0830185611a4f565b81810360c0830152611c248184611b50565b905098975050505050505050565b6000602082019050611c476000830184611ae1565b92915050565b611c5681611a0e565b8114611c6157600080fd5b50565b600081359050611c7381611c4d565b92915050565b611c8281611a45565b8114611c8d57600080fd5b50565b600081359050611c9f81611c79565b92915050565b600080600080600080600060e0888a031215611cc457611cc3611882565b5b6000611cd28a828b016118d0565b9750506020611ce38a828b016118d0565b9650506040611cf48a828b01611906565b9550506060611d058a828b01611906565b9450506080611d168a828b01611c64565b93505060a0611d278a828b01611c90565b92505060c0611d388a828b01611c90565b91505092959891949750929550565b60008060408385031215611d5e57611d5d611882565b5b6000611d6c858286016118d0565b9250506020611d7d858286016118d0565b9150509250929050565b7f4e487b7100000000000000000000000000000000000000000000000000000000600052602260045260246000fd5b60006002820490506001821680611dce57607f821691505b602082108103611de157611de0611d87565b5b50919050565b7f4e487b7100000000000000000000000000000000000000000000000000000000600052604160045260246000fd5b600060c082019050611e2b6000830189611a4f565b611e386020830188611ae1565b611e456040830187611ae1565b611e526060830186611991565b611e5f6080830185611991565b611e6c60a0830184611991565b979650505050505050565b6000604082019050611e8c6000830185611ae1565b611e996020830184611ae1565b9392505050565b7f4e6f7420656e6f75676820616c6c6f77616e6365000000000000000000000000600082015250565b6000611ed66014836117db565b9150611ee182611ea0565b602082019050919050565b60006020820190508181036000830152611f0581611ec9565b9050919050565b7f4e6f7420656e6f7567682062616c616e63650000000000000000000000000000600082015250565b6000611f426012836117db565b9150611f4d82611f0c565b602082019050919050565b60006020820190508181036000830152611f7181611f35565b9050919050565b6000606082019050611f8d6000830186611ae1565b611f9a6020830185611991565b611fa76040830184611991565b949350505050565b7f4e487b7100000000000000000000000000000000000000000000000000000000600052601160045260246000fd5b6000611fe9826118e5565b9150611ff4836118e5565b925082820190508082111561200c5761200b611faf565b5b92915050565b600060a0820190506120276000830188611a4f565b6120346020830187611a4f565b6120416040830186611a4f565b61204e6060830185611991565b61205b6080830184611ae1565b9695505050505050565b600060808201905061207a6000830187611a4f565b6120876020830186611a1b565b6120946040830185611a4f565b6120a16060830184611a4f565b95945050505050565b7f4e487b7100000000000000000000000000000000000000000000000000000000600052602160045260246000fdfea2646970667358221220e1c54cee6d65ec382ab53598287c7896ca96e63e608907a551e5c95bd7ec6ecc64736f6c634300081c0033",
  "linkReferences": {},
  "deployedLinkReferences": {}
}